S01700004763634170706C69636174696F6E312E737265635B
S113000012C03BC02BC02AC029C028C027C026C0AC
S113001025C05DC023C022C021C020C01FC01EC097
S11300201DC01CC01BC011241FBECFE5D4E0DEBF21
S1130030CDBF10E0A0E6B0E0EAE9F1E002C005902F
S11300400D92A036B107D9F720E0A0E6B0E001C0D8
S11300501D92A536B207E1F767D09DC018C0789409
S113006017BA8FEF88BB84B7826084BF84B781607E
S113007084BF8BB780648BBF08951F920F920FB615
S11300800F9211240F900FBE0F901F9018951F927E
S11300900F920FB60F9211240F900FBE0F901F9066
S11300A0189523B72B7F23BF23B7226023BF23B721
S11300B0216023BF29B7216029BF20E03AEF40E047
S11300C050E047D020936400209522BF08951F92EA
S11300D00F920FB60F9211248F939F93AF93BF93F8
S11300E080916400809582BF80916000909161004E
S11300F0A0916200B09163000196A11DB11D80938F
S1130100600090936100A0936200B0936300BF917C
S1130110AF919F918F910F900FBE0F901F901895E4
S11301205D9BFECF8CB908959ADF60E074E284EFA2
S113013090E0B7DF88E18AB981E080BD8FE989B9B1
S113014081E4EEDF8FE39CE90197F1F700C0000042
S1130150F7CFA1E21A2EAA1BBB1BFD010DC0AA1FDB
S1130160BB1FEE1FFF1FA217B307E407F50720F01C
S1130170A21BB30BE40BF50B661F771F881F991F97
S11301801A9469F760957095809590959B01AC01E0
S10D0190BD01CF010895F894FFCFDC
S9030000FC
